GMM41920001101C000003000123120110920CRIH010       VODONT.PH REMPLAC.Ple     ODONT.PH ROdontologiste PH Temps Plein, Remplaçant          PMDPRAODOPLE9200000000000EEEEEVEEE066             PH01112D    121         2000-503                                            ZH      980211059  ODO01     
GR527620000101C310363000123120080327DOFAVR0       VGESTIONNAIRE RESEAU      GEST RES  GESTIONNAIRE RESEAU                               PNMTEC         0000000000VVVVVVVVV0               52765110    014                                         B      L16                                       
GR245A20110630C000003000123120110704CRIH010       VPédicure-Podologue.C.N   Pédicur CNPédicure-Podologue Classe Normale                 PNMSOIRED      0000000000VVEVEEEEE0               243A2420    02221 FE    2011-746                        B  G280D15  0394A275PN                 05I50     
GMC21220101001C000003000123120101216CRIH010       VPhar.contr. T.partiel    PHAR.CONTRPrat.Contr. pharmacien Temps Partiel (grille TPL) PMDPRAPHAPAR9700000000000EEEEEVEEE06A 6C 69       PH01113F    140         2010-1137                                           ZH      989972052            
GMC00919860101C310363000123120130320HEBRUN0       VMédecin en titre gardes  Méd. GardeMédecin en titre des gardes                       PMDPRAMED   9700000000000EEEEEVEEE069             DIVM1220    140         93-701                                                      989973459            
GR246020020101C000003000123120110527CRIH010       VINFIRM.BLOC OP.C.Nor     Inf.Bloc.NInfirmier de Bloc Opératoire Classe Normale       PNMSOISMD      0000000000VVEVEEEEE0               24602320    01221 CI    2001-1374                       A  G230D12 3     215PM                 05C20     
GMP34120001101C000003000123120110920CRIH010       VPHARMACIEN T.Par         PHARMACIENPharmacien Temps Partiel                          PMDPRAPHAPAR9900000000000EEEEEVEEE068             PP01113C    122         2000-504                                            ZH      970022352  PHA02     
GMS11220070801C000003000123120080403CRIH0112347   VProf Univ  PH CSERD Cons PROF.UNIV-Prof. Univ / Prat. Hosp. CSERD Consultant         PMDPRAODOPLE9630000000000EEEEEVEEE054             S113112A    131         a 22-02-80                                          ZH      010021057            
GMM11720001101C000003000123120081014CRIH010       VPRATICIEN HOSP-UNIV.     PRATICIEN Praticien Hospitalo-Universitaire (temporaire)    PMDPRAMEDPLE9400000000000EEEEEVEEE057             EH04111E    111         2000-503                                            ZH      979971057            
GR318420060227C000003000123120060310CRIH010       VAide Laboratoire C.S     Aide-Labo Aide de Laboratoire Classe Supérieure             PNMMDTMDT      0000000000VVEVEEEEE0               ECE4411C    03331 GD    2006-227                        C      E18       312PN                           
GR601419960801C000003000123120050322CRIH010       VPSYCHOLOGUE Hors Cl.     Psychol.HCPsychologue Hors Classe                           PNMSOIPSY      0000000000VVEVEEEEE0               60142710    01251 KC    96-881                          A      S12 2     281PN                 05O10     
GMM90719700101C000003000123120010101AGIRH40       VASSIST.PROV.(A.M) Pl     ASSIST.PROAssistant titre provis.(Arr.Ministériel) T.Plein  PMDMEDMEDPLE   0000000000EEEEEVEEE061             DIVM111L                                                                    ZH        0031 59            
GMI06319991112C000003000123120110919CRIH010       VF.F.I. en MEDECINE       F.F.I. en Faisant Fonction d'Interne en Médecine            PMDINTMEDPLE7300000000000EEEEEEVEE077             FFI0221A    140         99-930                                              ZH      980091053  INME0     
GR518520000101C310363000123120040514DOFAVR0       VINGENIEUR INFORMATIQUE   ING INF   INGENIEUR EN INFORMATIQUE                         PNMTEC         0000000000VVVVVVVVV0               51855110    140                                         B      L11                                       
GMP51319610401C000003000123120010101AGIRH40       VMEDECIN T.Partiel        MEDECIN T.Médecin, Chir, Spéc, Biologiste Temps Partiel     PMDPRAMEDPAR9600000000000EEEEEVEEE056             PT02111H    113         60-1030   85-384                                    ZH        0022 52            
GMB10120101018C000003000123120110419CRIH0114462   VClinicien hosp. tps pleincl tps pl Clinicien hospitalier temps plein                 PMDPRAMEDPLE9700000000000EEEEEVEEE06G             PH01111M    140         2010-1218                                                   980211456            
GMM06520060526C000003000123120100223CRIH0111262   VPU-PH Pharmacien         PU-PHPharmProf. Univ-Prat.Hosp.Pharmacien rém. attaché      PMDATTMED   9650000000000EEEEEVEEE053             AT00111A    111         2006-593                                            ZH      010021057            
GR443520100101C000003000123120110314CRIH010       VBuandier Agt Entr. Qual  Buandier QAgent d'Entretien Qualifié Buandier               PNMTECINT      0000000000VVEVEEEEE0               ECE35130    03441 HR    2007-1185                       C      H17 2     426ZH                 25O20     
GR212520020101C000003000123120130211CRIH018604    VDirecteur soins méd. 2 clDir.soins2Directeur des soins activités médico-techn. 2e cl PNMADMADM      0000000000VEEEEEEEE0               21231300    01221 CA    2002-550                        A      Q10      A204ZH                 45C30     
GR2D0120121229C000003000123120130205CRIH018322    VInf. CadSup.Santé para   Inf.CadSupInfirmier cadre supérieur de santé paramédical    PNMSOISMD      0000000000VVEVEEEEE0               2D012120    01221 CB    2013-1466                       A      C12 1    A207PM                 05U10     
GMP25020060101C000003000123120060607CRIH010       VPrat hosp tps partiel proPrat hosp Praticien hospitalier temps partiel probatoire    PMDPRAMEDPAR9300000000000EEEEEVEEE068             PP01111G    122         R6152-13                                            ZH      980172452            
GR002620000314C000003000123120010101AGIRH40       VDIRECTEUR 2ème Cl.       Direct.2clDirecteur 2ème classe                             PNMADMDIR      0000000000VEEEEEEEE0               00211110    01100 AA    2000-232                        A      R100      001ZH                           
GR156620061101C000003000123120080908CRIH010       VPERM.AUX.REGUL. Chef     Perm.Aux.CPermanencier Auxiliaire de Régul.Méd. Chef        PNMADMADM      0000000000VVEVEEEEE0               EAE61220    03111 BG    2007-836                        C      B19       030PN                 40F30     
GR285620121229C000003000123120130211CRIH018322    VOrthopt. C.Santé Fo(CE)  Orthopt.MoOrthoptiste cadre santé formateur(exctinction)    PNMSOIECO      0000000000VVEVEEEEE0               28012130    02121 LB    2001-1375 2012-1465             A  G270K12 1    A202ZH                 05X10     
GR131620070808C000003000123120080908CRIH010       VAdjoint Admin. Ppal 2CL  Ad.Ad P2clAdjoint Administratif Hosp. principal 2ème Classe PNMADMADM      0000000000VVEVEEEEE0               ECE51220    03111 BC    2007-1184                       C      B19       020PN                 45S20     
GR2C0320121229C000003000123120130205CRIH010       VI.A.D.E Cad.Santé Para   Inf.An.CSaInfirmier anesthésiste cadre santé paramédical    PNMSOISMD      0000000000VVEVEEEEE0               2C012120    01221 CM    2012-1466                       A  G220C12 1    A207PM                 05U20     
GMV31820030101C000003000123120031201CRIH019386    VAttaché Odontologiste    Attaché OdAttaché Odontologiste                             PMDATTMED   9050000000000EEEEEVEEE06V 6W          AT00112E    140         2003-769                                            ZH      980083352            
GMV36420030101C000003000123120031125CRIH019386    VAtt.cons.a.ass.serv.dent Attaché CoAttaché consultant ancien assistant serv.dentairesPMDATTMED   9050000000000EEEEEVEEE06V 6W          AT00111K    140         2003-769                                            ZH      980083352            
GR573220070625C000003000123120080908CRIH010       VIngén.Chef CN            Ing.Ch.CN Ingénieur en Chef CN                              PNMTECTEC      0000000000VVEVEEEEE0               57325110    01441 HB    2007-1186                       A      F11       400ZH                           
GR281720121229C000003000123120130208CRIH018322    VDiététicien C.Santé(CE)  Diétét.CSaDiététicien cadre santé (extinction)              PNMSOIRED      0000000000VVEVEEEEE0               28012130    01221 FU    2001-1375 2012-1465             A  G200C12 1    A202PN                 05U20     
GR003320000314C000003000123120010101AGIRH40       VDIRECT.ADJOINT 3 Cl      Dir.Adj. 3Directeur Adjoint 3ème classe                     PNMADMDIR      0000000000VEEEEEEEE0               00311110    01100 AA    2000-232                        A      R100      001ZH                           
GMA40519870801C000003000123120010101AGIRH40       VASSIST.GENERAL.PHARM     ASSIST.GENAssistant Pharmacien Généraliste des Hôpitaux     PMDASSPHAPLE9000000000000EEEEEVEEE063             AH00113G    121         87-788                                              ZH      980031456            
GMP11319600101C000003000123120010101AGIRH40       VPRAT.H-U NON Ch.S.Pa     PRAT.H-U NPraticien Hospitalo-Universitaire T.Partiel       PMDPRAMEDPAR9600000000000EEEEEVEEE056             PT02111H    113         60-1030                                             ZH      970022 52            
GR286320121229C000003000123120130211CRIH018322    VManip.rad. C.Santé F(CE) M.Elec.MonManipulateur électro.cadre santé form(exctinction)PNMSOIECO      0000000000VVEVEEEEE0               2801413A    02131 LB    2001-1375 2012-1465             A  G240K12 1    A202ZH                 05X10     
GR275F20110630C000003000123120110712CRIH010       VOrthoptiste C.S          Orthopt.CSOrthoptiste Classe Supérieure                     PNMSOIRED      0000000000VVEVEEEEE0               273A2440    02221 FD    2011-746                        B  G270D15  0471A245PN                 05I40     
GMM82320001101C000003000123120110920CRIH010       VODONT.PH CH.SERV.Ple     ODONT.PH COdontologiste PH, Chef de Service temps plein     PMDPRAODOPLE9200000000000EEEEEVEEE066             PH01112F    121         2000-503                                            ZH      980011052  ODO01     
GMI20319991112C000003000123120010101AGIRH40       VF.F.I. en ODONTOLOGIE    F.F.I. en Faisant Fonction d'Interne en Odontologie         PMDINTODOPLE7300000000000EEEEEEVEE077             FFI0221C    140         99-930                                              ZH        0071 53            
GR301520070625C000003000123120080908CRIH010       VA.S. Auxil.Puéric. CS    Aux.Puér SA.S. Auxiliaire Puériculture CS                   PNMSOISMD      0000000000VVEVEEEEE0               ECE52530    03221 EC    2007-1188                       C      E18       228PN                 05R50     
GMF06420110601C000003000123120110712CRIH0114562   VStag. associé pharmacien StagAss   Stagiaire associé pharmacien                      PMDINTPHAPLE7300000000000EEEEEEVEE077             FFI0222B    140         R6134-2                                             ZH      980101053            
GMI08520061101C000003000123120130517CRIH0112226   VInterne Spécialité (rech)Interne spInterne de Spécialité en année-recherche          PMDINTMEDPLE7110000000000EEEEEEVEE077             INTR211A    140                                                             ZH      980091053  INME0     
GMT16719990519C000003000123120010101AGIRH40       VASS.H-U CSERD As.Ple     ASS.H-U CSAssistant Hospit.Univ.CSERD Associé, T.Plein      PMDASSODOPLE9130000000000EEEEEVEEE054             T163112C    131         99-378                                              ZH      070031 57            
GR584520031229C310363000123120120229HEBRUN9568    VTechnicien supérieur hospTech.S.HosTechnicien supérieur hospitalier                  PNMTECTEC      0000000000VVEVEEEEE0               5845511A    02441 HC    2003-1270                       B      F14       406PM                           
GR430520070625C000003000123120070917CRIH010       VOuvrier Profess. QualifiéO.P.Qual. Ouvrier Professionnel Qualifié                    PNMTECOUV      0000000000VVEVEEEEE0               ECE45130    03441 HG    2007-1185                       C      H17 2     426PN                           
GMN06020060526C000003000123120070103CRIH0111262   VPU.  Prat Hosp Pharm ConsPU PH PharProf. Univ / Prat. Hosp. Pharmacien Consultant    PMDMEDMEDPLE9600000000000EEEEEVEEE053             EH00111A    111         2006-593                                            ZH      010021057            
GR204120121229C000003000123120130211CRIH018322    VInf. CSup.Santé/Form(CE) Inf.CSa foInfirmier cadre sup. santé formateur(extinction)  PNMSOIECO      0000000000VVEVEEEEE0               20012120    02221 LB    2001-1375 2012-1465             A      K12 1    A202ZH                 05X10     
GR276C20110630C000003000123120110712CRIH010       VManip.électroradio. C.S  M.Elect.CSManipulateur Electroradiologie Cl.Supérieure      PNMMDTMDT      0000000000VVEVEEEEE0               273A413B    02331 GE    2011-748                        B  G240D15  0471A320PM                 05L30     
GMP02819600101C000003000123120010101AGIRH40       VMAIT.CONF.U.NChS Pa      MAIT.CONF.Maître de Conférence Universités T.Partiel        PMDPRAMEDPAR9500000000000EEEEEVEEE050             DIVM111B    113         60-1030                                             ZH      040022 52            
GR245D20110630C000003000123120110712CRIH010       VPsychomotricien C.N      Psy-Mot.CNPsychomotricien Classe Normale                    PNMSOIRED      0000000000VVEVEEEEE0               243A2470    02221 FF    2011-746                        B  G290D15  0394A265PN                 05I70     
GR000120090723C000003000123120120705CRIH010       VDirecteur Général (HEE)  Direct.GénDirecteur Général rémunéré hors échelle E         PNMADMDIR      0000000000VVEEEEEEE0               00011110    01100 AA    2012-735                        A      R100     C001ZH                           
GR225219920801C000003000123120090403CRIH010       VTECH.LABO.C.Nor.(CE)     T.Lab.N CETechnicien de Laboratoire Cl.Norm.(C.Extinction)  PNMMDTMDT      0000000000VVEVEEEEE0               2252411B    02331 GC    93-92                           B  G320D15       310PN                           
GR591120060227C000003000123120100618CRIH010       VDessinateur              DessinateuDessinateur                                       PNMTECTEC      0000000000VVEVEEEEE0               ECE4511A    03441 HM    2006-227                        C      H17 2     410PN                 20F30     
GR200220121229C000003000123120130211CRIH018322    VI.B.O.D.E CSup.Santé(CE) Inf.Bl.CSaInf. bloc opératoire cadre sup. santé (extinction)PNMSOISMD      0000000000VVEVEEEEE0               20012120    01221 CH    2001-1375 2012-1465             A  G230C12 1    A202PM                 05U10     
GMH40120000701C000003000123120010101AGIRH40       VPRAT.AD.CONT.PHA.Par     PRAT.AD.COPraticien Adjoint Contractuel Pharmacien T.PartielPMDPRAPHAPAR9800000000000EEEEEVEEE052             PAC1113I    140         2000-774                                            ZH      980232352            
GR246A20110630C000003000123120110712CRIH010       VPrép.Pharm.hosp. CN      Pr.Phar.CNPréparateur Pharmacie hospitalière C.N.           PNMMDTMDT      0000000000VVEVEEEEE0               243A4120    02331 GM    2011-748                        B  G330D15  0394A300PN                 05L20     
GMT18120000901C000003000123120010101AGIRH40       VMCU-PH CSERD T.Part.     MCU-PH CSEMaître Conférence Universités-PH des CSERD T.Part.PMDPRAODOPAR9530000000000EEEEEVEEE054             T181112B    132         A-13/11/00                                          ZH      04   2 57            
GR294420060227C000003000123120110603CRIH010       VElève Aide-Soignant Ech 3Elève A-S Elève Aide-Soignant Echelle 3                     PNMSOISMD      0000000000VEEEEEEEE012 09          ECE32510    03221 EE    2006-227                        C      D18          ZH                           
GR273A20101201C000003000123120110712CRIH010       VINF.D.E.Cl.Sup (C.E.)    Inf.DE C.SInfirmier D.E. Cl.Supérieure (cadre extinction)   PNMSOISMD      0000000000VVEVEEEEE0               273A2210    02221 CC    2010-1140                       B      D15      B205PN                 05C10     
GMP24620001101C000003000123120010101AGIRH40       VPRAT.N.C.SER.PROV Pa     PRAT.N.C.SPraticien Provisoire Temps Partiel                PMDPRAMEDPAR9300000000000EEEEEVEEE068             PP01111L    122         2000-504                                            ZH      970172459            
GR016020120511C000003000123120120709CRIH0115062   VDIR.ETS SAN.SOC&MSo fonc Dir.ESS.foDir.Etab.Sanitaire & Méd.Social emploi fonctionnelPNMADMDIR      0000000000VVEEEEEEE0               01611110    01100 AA    2012-738  09/05/2012            A      R100     C002ZH                           
GR2D0420121229C000003000123120130205CRIH010       VPuér. CadSup.Santé Para  Puéric.CSaPuéricultrice cadre sup. santé paramédical        PNMSOISMD      0000000000VVEVEEEEE0               2D012120    01221 CD    2001-1375                       A  G300C12 1    A207PM                 05U10     
GMM91719700101C000003000123120010101AGIRH40       VASSIST.PROV.(A.P) Pl     ASSIST.PROAssistant titre provis.(Arr.Préfectoral) T.Plein  PMDPRAMEDPLE   0000000000EEEEEVEEE061             DIVM111L                                                                    ZH        0031 59            
GR002920000314C000003000123120010101AGIRH40       VDIRECT.ADJOINT 2 Cl      Dir.Adj. 2Directeur Adjoint 2ème classe                     PNMADMDIR      0000000000VEEEEEEEE0               00211110    01100 AA    2000-232                        A      R100      001ZH                           
GMI07320020101C000003000123120130315CRIH010       VRésident Méd.Gén.sem.sup.Résident MRésident Médecine Générale semestre supplémentairePMDINTMEDPLE7210000000000EEEEEEVEE077             INT0211B    140                                                             ZH      980091053  INME0     
GMC13120001101C000003000123120010101AGIRH40       VPRAT.CONT.MISSION Pl     PRAT.CONT.Pratic. Contractuel Temps Plein/mission spécifiquePMDPRAMEDPLE9700000000000EEEEEVEEE06B 69          PH01111M    140         2000-503                                            ZH           1 56            
GMB11120101018C000003000123120110419CRIH0114462   VClinicien hosp. tps part cl tps parClinicien hospitalier temps partiel               PMDPRAMEDPAR9700000000000EEEEEVEEE06G             PH01111M    140         2010-1218                                                   980211352            
GMC34220101001C000003000123120101216CRIH0114113   VPrat.ctr.odonto.TPA mi.s Prat.contrPraticien contr.odonto.T.Part miss.spé(Grille TPL)PMDPRAODOPAR9700000000000EEEEEVEEE06A 6C 69       PH01113F    140         2010-1137                                           ZH      989972056            
GR2D1120121229C000003000123120130205CRIH010       VPéd-pod.CadSup.Santé ParaPédic. CSaPédicure-podologue cadre sup. santé paramédical   PNMSOIRED      0000000000VVEVEEEEE0               2D012130    02221 FJ    2012-1466                       A  G280C12 1    A207ZH                 05U10     
GRX85019010101C000003000123120010101AGIRH40       VOBJEC. DE CONSCIENCE     Obj.Consc.Objecteur de Conscience                           PNMDIVDIV      0000000000EEEEVEEEE03Z             0000                                                                        ZH                           
GMV36720030101C000003000123120031125CRIH019386    VAttaché cons.ancien PAC  Attaché CoAttaché consultant ancien PAC                     PMDATTMED   9050000000000EEEEEVEEE06V 6W          AT00111K    140         2003-769                                            ZH      980083352            
GR2A0220120701C000003000123120120918CRIH010       VInf.Bloc Op.2e grade ISGSISGS 2    Infirmier Bloc Opératoire 2eme grade ISGS         PNMSOISMD      0000000000VVEVEEEEE0               2A022320    02221 CI    2010-1139                       A      D12 3    A21APN                 05C20     
GRX60019750101C000003000123120010101AGIRH40       VELEVE AUXIL. DE PUER     El.Aux.PuéElève Auxiliaire de Puériculture                  PNMDIVSMD      0000000000EEEEVEEEE03Z             0000                                                                        ZH                           
GR003620000314C000003000123120010101AGIRH40       VATT.DIRECT.Serv.Eco      Att.DirectAttaché de Direction chargé des Serv.Economiques  PNMADMDIR      0000000000VEEEEEEEE0               00311110    01100 AA    2000-232                        A      R100      001ZH                           
GR311620060227C000003000123120090403CRIH010       VAide-Techn.Elect.(CE)    A-T Ele CEAide Technique Electroradiologie (C. extinction)  PNMMDTMDT      0000000000VVEVEEEEE0               ECE54140    03331 GF    2006-227                        C      E18       315PN                           
GMS03119810128C000003000123120010101AGIRH40       VPROF.1G.1Cl-OD Pl CE     PROF.1G.1CProf.1e grade-Odontologiste 1e classe T.Plein (CE)PMDPRAODOPLE9630000000000EEEEEVEEE055             ED05112A    131         81-61                                               ZH        0021 57            
GMM03620000901C000003000123120010101AGIRH40       VMAITRE CONF-PH           MAITRE CONMaître de Conférence-Praticien Hospitalier        PMDPRAMEDPLE9500000000000EEEEEVEEE053             M036111B    111         A-13/11/00                                          ZH      040021 57            
GR2C1320121229C000003000123120130205CRIH010       VErgothér. CadSanté Para  Ergoth.CSaErgothérapeute cadre santé paramédical            PNMSOIRED      0000000000VVEVEEEEE0               2C012130    02221 FM    2012-1466                       A  G210C12 1    A207PN                 05U20     
GR301820070625C000003000123120080908CRIH010       VA.S. Aide Méd-Psy CS     A.Md-Psy.SA.S. Aide Médico-Psycho. CS                       PNMSOISMD      0000000000VVEVEEEEE0               ECE52520    03221 EF    2007-1188                       C      E18       228ZH                 10I10     
GMP74120001101C000003000123120010101AGIRH40       VPRATIC.CHEF SERV.Par     PRATIC.CHEPraticien Hospital.Temps Partiel, Chef de Service PMDPRAMEDPAR9300000000000EEEEEVEEE068             PP01111G    122         2000-504                                            ZH      970012352            
GR574220070625C000003000123120080908CRIH010       VIngén.Chef CE            Ing.Ch.CE Ingénieur en Chef CE                              PNMTECTEC      0000000000VVEVEEEEE0               57425110    01441 HB    2007-1186                       A      F11       400ZH                           
GMA41519870801C000003000123120010101AGIRH40       VASSIS.GENE.ASS.PHARM     ASSIS.GENEAssistant Pharmacien Généraliste Associé          PMDASSPHAPLE9000000000000EEEEEVEEE063             AH02113G    121         87-788                                              ZH      980031456            
GRD20019930101C310363000123120031217FORM070       VAPPRENTI                 Apprenti  Apprenti                                          PNMDIVOUV      0000000000EEEEVEEEE03A             0000                                                                                                     
GR245919930801C310363000123120120229HEBRUN0       VMANIP-ELECTRO. C.Nor     M.Elect.CNManipulateur Electroradiologie Classe Normale     PNMMDTMDT      0000000000VVEVEEEEE0               2458413B    02331 GE    94-77                           B  G240D15       320PM                 05L30     
GR451920060227C000003000123120110419CRIH010       VManoeuvre (CE)           Manoeuv.CEManoeuvre (Cadre d'extinction)                    PNMTECOUV      0000000000VVEVEEEEE0               ECE35130    03441 HJ    2006-227                        C      I17 2     425ZH                           
GR204420121229C000003000123120130211CRIH018322    VPuéri. CSup.Santé/F(CE   Puéric.CsaPuéricultrice cad sup. santé formateur(extinction)PNMSOIECO      0000000000VVEVEEEEE0               20012120    02221 LB    2001-1375 2012-1465             A  G300K12 1    A202ZH                 05X10     
GMM31320001101C000003000123120010101AGIRH40       VPHARMACIEN PH T.Ple      PHARMACIENPharmacien PH temps plein                         PMDPRAPHAPLE9200000000000EEEEEVEEE066             PH01113A    121         2000-503                                            ZH        0021 52            
GR245G20110630C000003000123120110712CRIH010       VDiététicien C.N          Diététi.CNDiététicien Classe Normale                        PNMSOIRED      0000000000VVEVEEEEE0               243A2450    02221 FH    2011-746                        B  G200D15  0394A255PN                 05I10     
GR000420050805C000003000123120120705CRIH010       VDir. Général AP-HP/HM/HCLDirect.GénDirecteur Général AP-HP/HM/HCL (2010-269)         PNMADMDIR      0000000000VEEEEEEEE0               00041110    01100 AA    2010-629  2012-735  0001        A      R100      001ZH                           
GMV38120050528C000003000123120050818CRIH010       VMéd. coordonnateur-att.  Méd coord Médecin coordonnateur- Praticien attaché          PMDATTMED   9050000000000EEEEEVEEE06V             AT00111K    140         2005-560                                            ZH      980083352            
GRX20019930101C000003000123120010101AGIRH40       VAPPRENTI                 Apprenti  Apprenti                                          PNMDIVOUV      0000000000EEEEVEEEE03A             0000                                                                        ZH             10            
GR205120121229C000003000123120130211CRIH018322    VPédic-pod.CSup.Santé/F(CEPédic.CSa Pédicure-podologue cad.sup. santé form(extinction)PNMSOIECO      0000000000VVEVEEEEE0               20012130    02121 LB    2001-1375 2012-1465             A  G280K12 1    A202ZH                 05X10     
GMM57020060526C000003000123120070103CRIH0111262   VPU-PH Pharm Ch.S Prov.   PU-PH PharProf Univ.-Prat.Hosp Pharmacien, Ch.Serv.Prov.    PMDPRAMEDPLE9600000000000EEEEEVEEE053             M012111A    111         2006-593                                            ZH      010011057            
GR585C20110630C000003000123120120217CRIH0114582   VTech.sup.hosp 1 classe   Tech.sup  Technicien supérieur hospitalier 1ère classe      PNMTECTEC      0000000000VVEVEEEEE0               125C511A    02441 HW    2011-744                        B      F14  0524A407PM                 20O30     
GR001120000314C000003000123120010101AGIRH40       VDIRECT.GENERAL ADJ.      Dir.Gén.AdDirecteur Général Adjoint                         PNMADMDIR      0000000000VEEEEEEEE0               00101110    01100 AA    2000-232                        A      R100      001ZH                           
GR284120121229C000003000123120130211CRIH018322    VInfirmier C.Santé Fo(CE) Inf ForCSaInfirmier cadre santé formateur (exctinction)     PNMSOIECO      0000000000VVEVEEEEE0               28012120    02221 LB    2001-1375 2012-1465             A      K12 1    A202ZH                 05X10     
GR592120060227C000003000123120060310CRIH010       VDessinateur Chef Groupe  Dessi.ChefDessinateur Chef de Groupe                        PNMTECTEC      0000000000VVEVEEEEE0               ECE5511A    03441 HM    2006-227                        C      H17 1     410PN                 20F30     
GR201220121229C000003000123120130211CRIH018322    VMass-kiné.C.Sup.Santé(CE M-Kiné.CSaMasseur-kiné. cadre sup. santé(extinction)        PNMSOIRED      0000000000VVEVEEEEE0               20012130    01221 FA    2001-1375 2012-1465             A  G250C12 1    A202ZH                 05U10     
GMP24920001101C000003000123120010101AGIRH40       VPRAT.REMPLACANT Par      PRAT.REMPLPraticien Hospitalier Temps Partiel Remplaçant    PMDPRAMEDPAR9300000000000EEEEEVEEE068             PP01111L    122         2000-504                                            ZH      970172459            
GR022220070701C000003000123120130613CRIH0111682   VMédecin du Travail       Méd.Trav. Médecin du Travail                                PNMMEDADM      0000000000VVEEEEEEE0               02221210    011   AB                                    A      A10      A   ZH                 30I20     
GMM22220001101C000003000123120010101AGIRH40       VPRAT.HOSP.PROVIS.Ple     PRAT.HOSP.Praticien à titre provisoire temps plein          PMDPRAMEDPLE9200000000000EEEEEVEEE066             PH01111L    121         2000-503                                            ZH        0021 59            
GMU16519900101C000003000123120010101AGIRH40       VASS.H-U CSERD As.Par     ASS.H-U CSAssistant Hospit.Univ.CSERD Associé, T.Partiel    PMDASSODOPAR9130000000000EEEEEVEEE054             ED03112C    132         90-92                                               ZH      070032 57            
GMN51219850101C000003000123120010101AGIRH40       VPROF.UNIV-PH Ch.S        PROF.UNIV-Professeur Universités.-Pratic.Hosp, Chef Service PMDPRAMEDPLE9600000000000EEEEEVEEE053             EH00111A    111         84-135                                              ZH      010011 57            
GR280220121229C000003000123120130208CRIH018322    VI.B.O.D.E Cad.Santé (CE) Inf.Bl.CSaInfirmier bloc opératoire cadre santé (extinction)PNMSOISMD      0000000000VVEVEEEEE0               28012120    01221 CN    2001-1375 2012-1465             A  G230C12 1    A202PM                 05U20     
GR422420070625C000003000123120090525CRIH010       VMaître Ouv. Pr. Buandier Maît-Ouv.PMaître Ouvrier Principal Buandier                 PNMTECOUV      0000000000VVEVEEEEE0               EBE65130    02441 HF    2007-1185                       C      H17 1     426ZH                           
GR145A20110616C000003000123120120217CRIH019999    VAssist.médico-adm.C.Nor  Assistant Assistant médico-administratif Classe Normale     PNMADMADM      0000000000VVEVEEEEE0               125A1210    02111 BJ    2011-660                        B      B16  0393A016PN                 40L20     
GR264520070808C000003000123120080908CRIH010       VEducateur Tech.Spec.CS   Ed.T.Sp CSEducateur Technique Spécialisé CS                 PNMSOISED      0000000000VVEVEEEEE0               26453130    02251 KD    2007-1190                       B      M15       286ZH                 10F30     
GR243B20101201C000003000123120101217CRIH010       VINF.AUTORISE C.N(C.E.)   Inf.Aut.CNInfirmier Autorisé Cl. Normale (cadre extinction) PNMSOISMD      0000000000VVEVEEEEE0               243A2210    02221 CC    2010-1140                       B      D15       205ZH                 05C10     
GR2B0320120701C000003000123120130611CRIH010       VInf. Anest 4e grade ISGS ISGS 4    Infirmier Anesthésiste 4eme grade ISGS            PNMSOISMD      0000000000VVEVEEEEE0               2A042310    02221 CG    2010-1139                       A      D12 3    A21APN                 05C30     
GR291519800410C000003000123120050908CRIH010       VELEVE INFIRMIER PSY      Elève Inf.Elève Infirmier Secteur Psychiatrique             PNMSOISMD      0000000000EVEVVEEEE0               29152220    02221 CL    80-253                                              PN                           
GR269120030101C310363000123120061117SAGENT0       VTECHNICIEN D'ANIMATION   Animateur Technicien d'Animation Principal                  PNMSOISED      0000000000VVEVEEEEE0               26913130    02251 KI    93-654                          B      M15       285                             
GR260620070514C000003000123120110527CRIH010       VCADRE SOCIO-EDUCATIF     C.Soc-EducCadre Socio-Educatif                              PNMSOISED      0000000000VVEVEEEEE0               26063121    02251 KE    2007-839                        A      M12 1     282ZH                 10C10     
GR213820020101C000003000123120110527CRIH019365    VDir.Ec. Cadre  Sage-FemmeDir.Cad.SFDirecteur d'Ecole prép certificat Cadre Sage-FemmePNMADMADM      0000000000VEEEEEEEE0               21382810    02131 LA    2003-860                        A  G110J12 1     280ZH                           
GR007219950801C000003000123120010101AGIRH40       VDIR.Et.Ann.4Cl (CE)      Dir.Et.AnnDirecteur Etab. Annexe 4ème cl. Cadre d'extinctionPNMADMDIR      0000000000VEEEEEEEE0               00711110    01100 AA    96-113                          A      R100      001ZH                           
GMR11220070801C000003000123120080403CRIH0112347   VProf. Univ  PH CSERD ConsPROF.UNIV-Prof. Univ / Prat. Hosp. CSERD Consultant         PMDPRAODOPLE9630000000000EEEEEVEEE054             ED13112A    131         A 22-02-08                                          ZH      010021057            
GR2D1420121229C000003000123120130211CRIH010       VPsycho.CadSup.Santé Para PsyMot.CSaPsychomotricien cadre sup. santé paramédical      PNMSOIRED      0000000000VVEVEEEEE0               2D012130    02221 FN    2012-1466                       A  G290C12 1    A207ZH                 05U10     
GMN01219850101C000003000123120010101AGIRH40       VPROF.UNIVERSITE-PH       PROF.UNIVEProfesseur Universités-Praticien Hospitalier      PMDMEDMEDPLE9600000000000EEEEEVEEE053             EH00111A    111         84-135                                              ZH      010021 57            
GRX60320021001C000003000123120030507CRIH019104    VEtudiant Sage-femme      Etud.S.F. Etudiant Sage-femme                               PNMDIVSMD      0000000000EEEEVEEEE03G             X603                    2003-19                                             ZH                           
GMA30519870801C000003000123120010101AGIRH40       VASSISTANT GENERALIST     ASSISTANT Assistant Généraliste des Hôpitaux                PMDASSMEDPLE9000000000000EEEEEVEEE063             AH00111I    121         87-788                                              ZH      980031456            
GMC14120001101C000003000123120010101AGIRH40       VPRAT.CONT.MISSION Pa     PRAT.CONT.Prat. Contractuel Temps Partiel/mission spécifiquePMDPRAMEDPAR9700000000000EEEEEVEEE06C 69          PP01111M    140         2000-504                                            ZH           2 52            
GR2C1620121229C000003000123120130205CRIH010       VOrthoptiste C.Santé Para Orthopt.CSOrthoptiste cadre santé paramédical               PNMSOIRED      0000000000VVEVEEEEE0               2C012130    02221 FS    2012-1466                       A  G270C12 1    A207PN                 05U20     
GMM08520060526C000003000123120100223CRIH0111262   VMCU-PH Pharmacien        MCU-PHPharMaître Conférence Univ-P.H.Pharmacien rém. attachéPMDATTMED   9650000000000EEEEEVEEE053             AT00111A    111         2006-593                                            ZH      010021057            
GMI20920020101C000003000123120110919CRIH010       VInterne Odontologie s.supInterne OdInterne en Odontologie semestre supplementaire    PMDINTODOPLE7130000000000EEEEEEVEE077             INT0        140         2001-23                                             ZH      980071053  INOD0     
GR2D2120121229C000003000123120130205CRIH010       VPrép.pha.CadSup.Santé ParT.Pha.CSa Préparateur pharmacie cadre sup. santé paramédicalPNMMDTMDT      0000000000VVEVEEEEE0               2D014120    02331 GA    2012-1466                       A  G330C12 1    A207ZH                 05U10     
GR420520070625C000003000123120090525CRIH010       VMaître Ouvrier Buandier  Maître-OuvMaître Ouvrier Buandier                           PNMTECOUV      0000000000VVEVEEEEE0               ECE55130    03441 HF    2007-1185                       C      H17 1     426ZH                 25O20     
GMS04119810128C000003000123120010101AGIRH40       VPROF.1G.2Cl-OD Pl CE     PROF.1G.2CProf.1e grade-Odontologiste 2e classe T.Plein (CE)PMDPRAODOPLE9630000000000EEEEEVEEE055             ED05112A    131         81-61                                               ZH        0021 57            
GR435720100101C000003000123120110314CRIH010       VAgent S.M.D.  1e Cat (CE)Ag.SMD 1c Agent S.M.D. de 1ère Catégorie (Cadre extinction) PNMTECINT      0000000000VVEVEEEEE0               ECE45130    03441 HS    2007-1185                       C      H17 2     465PN                 05R60     
GR2C2320121229C000003000123120130205CRIH010       VManip. rad. C.Santé Para M.Elec.CSaManip. d'électroradiologie cadre santé paramédicalPNMMDTMDT      0000000000VVEVEEEEE0               2C01413A    01331 GK    2012-1466                       A  G240C12 1    A207PN                 05U20     
GR000720090723C000003000123120120706CRIH010       VDir.Général Adjoint-gp IIDir.Gén.AdDirecteur Général Adjoint (groupe II)             PNMADMDIR      0000000000VEEEEEEEE0               00071110    01100 AA    2012-562                        A      R100     C001ZH                           
GR225820010913C310363000123120040407FORM030       VPrép.Pharm.Hosp.C.S.     Pr.Phar.CSPréparateur Pharmacie Hospitalière C.S.           PNMMDTMDT      0000000000VVEVEEEEE0               27684120    02331 GA    2001-1374                       B  G330D15       300                             
GMM42120001101C000003000123120110920CRIH010       VODONTO.PH PROVIS.Ple     ODONTO.PH Odontologiste PH Temps Plein à titre provisoire   PMDPRAODOPLE9200000000000EEEEEVEEE066             PH01112D    121         2000-503                                            ZH      980211059  ODO01     
GR211320020101C000003000123120130613CRIH018604    VDirecteur soins S.I. 1 clDir.Soins1Directeur des soins services infirmiers 1e classe PNMADMSOI      0000000000VEEEEEEEE0               21131400    01221 CA    2002-550                        A      Q10       204ZH                 45C30     
GR205420121229C000003000123120130211CRIH018322    VPsychomot.CSup.Santé/F(CEPsyMot.CSaPsychomotricien cadre sup. santé form.(extinction PNMSOIECO      0000000000VVEVEEEEE0               20012130    02121 LB    2001-1375 2012-1465             A  G290K12 1    A202ZH                 05X10     
GMM32320060101C000003000123120061113CRIH010       VPharm.PH probat.Plein    Pharm.PH PPharmacien Prat. hospitalier tp plein probatoire  PMDPRAPHAPLE9200000000000EEEEEVEEE066             PH01113A    121         2006-1221                                           ZH      980171059            
GR001420000314C000003000123120010101AGIRH40       VDIRECT.Serv.Cent.1Cl     Dir.Sv.CenDirecteur de Service Central 1ère classe          PNMADMDIR      0000000000VEEEEEEEE0               00121110    01100 AA    2000-232                        A      R100      001ZH                           
GR284420121229C000003000123120130211CRIH018322    VPuéricult.C.Santé Fo(CE) Puéric.MonPuéricultrice cadre santé formateur(exctinction)  PNMSOIECO      0000000000VVEVEEEEE0               28012120    02221 LB    2001-1375 2012-1465             A  G300K12 1    A202ZH                 05X10     
GR586520031229C310363000123120120229HEBRUN9568    VTechnicien sup. hosp chefTech.sup  Technicien supérieur hospitalier chef             PNMTECTEC      0000000000VVEVEEEEE0               5865511A    02441 HC    2003-1270                       B      F14       406PM                 20O30     
GR201520121229C000003000123120130211CRIH018322    VOrthophon.C.Sup.Santé(CE)OrthophCSaOrthophoniste cadre sup. santé (extinction)       PNMSOIRED      0000000000VVEVEEEEE0               20012130    02221 FP    2001-1375 2012-1465             A  G260C12 1    A202ZH                 05U10     
GMM06020060526C000003000123120070214CRIH0111262   VPU.  Prat Hosp Pharm ConsPU PH PharProf. Univ / Prat. Hosp. Pharmacien Consultant    PMDPRAMEDPLE9650000000000EEEEEVEEE053             M012111A    111         2006-593                                            ZH      010021057            
GR001B20120427C000003000123120121119CRIH0115042   VDir.Emp.Fonc(Gp II)      Dir.emp.F Directeur emploi fonctionnel (groupe II)          PNMADMDIR      0000000000VVEEEEEEE0               00071110    01100 AA    2012-562                        A      R100     C   ZH                           
GR206120121229C000003000123120130211CRIH018322    VPrép.pha.H.CSup.San/F(CE P.PhaCSa  Prép.pharmacie H.cadre sup.santé form(extinction) PNMMDTMDT      0000000000VVEVEEEEE0               20014120    02331 GI    2001-1375 2012-1465             A  G330C12 1    A202ZH                 05X10     
GR572019900101C310363000123120040407FORM030       VINGENIEUR EN CHEF        Ingén.ChefIngénieur en Chef                                 PNMTECTEC      0000000000VVEVEEEEE0               57205110    01441 HB    91-668    96-961                A      F111      400                             
GR002120000314C000003000123120010101AGIRH40       VDIRECTEUR 2ème Cl.       Direct.2clDirecteur 2ème classe                             PNMADMDIR      0000000000VEEEEEEEE0               00211110    01100 AA    2000-232                        A      R100      001ZH                           
GR227219930801C000003000123120030718CRIH010       VTECH. LABO CTS.  C.N     Tec.Lab.CNTechnicien de Laboratoire CTS Cl. Normale         PNMMDTCTS      0000000000VVEVEEEEE0               2458411B    02331 GC    94-77                           B  G310D15       310ZH                 05L10     
GMY70220050528C000003000123120110715CRIH010       VMéd. coordonnateur- terr.Méd Coord Médecin coordonnateur- Médecin territorial        PMDMED         0000000000EEEEEEEEV09Z             DIVM        140         2005-560                        A                   ZH      9899774              
GR285120121229C000003000123120130211CRIH018322    VPédic-pod. C.Santé F(CE) Pédic.MoniPédicure-podologue cadre santé form(exctinction)  PNMSOIECO      0000000000VVEVEEEEE0               28012130    02121 LB    2001-1375 2012-1465             A  G280K12 1    A202ZH                 05X10     
GR202220121229C000003000123120130211CRIH018322    VTech. labo.CSup.Santé(CE)T.Labo.CSaTechnicien laboratoire cadre sup. santé(extinctionPNMMDTMDT      0000000000VVEVEEEEE0               2001411A    01331 GJ    2001-1375 2012-1465             A  G310C12 1    A202ZH                 05U10     
GR125219960801C310363000123120120229HEBRUN0       VADJT.CADRES Cl.Sup.      Ad.Cad.H SAdjoint des Cadres Hospitaliers Cl.Supérieure     PNMADMADM      0000000000VVEVEEEEE0               12521220    02111 BB    94-1096                         B      A16       010PN                 45S40     
GMV31320030101C000003000123120031125CRIH019386    VAttaché anc.ass.u.ass.hôpAttaché anAttaché anc.assistant univers.-assistant hôp      PMDATTMED   9050000000000EEEEEVEEE06V 6W          AT00111K    140         2003-769                                            ZH      980083352            
GR270720020101C000003000123120110527CRIH010       VINFIRM.BLOC OP.C.Sup     Inf.Bloc.SInfirmier Bloc Opératoire Classe Supérieure       PNMSOISMD      0000000000VVEVEEEEE0               27072320    01221 CI    2001-1374                       A  G230D12 3     215PM                 05C20     
GR325320070625C000003000123120070917CRIH010       VA.S.H.Qualifié           ASH Qual  Agent des Services Hospitaliers Qualifié          PNMSOISMD      0000000000VVEVEEEEE0               ECE32610    03221 ED    2007-1188                       C      E18       228PN                 30F30     
GR281220121229C000003000123120130208CRIH018322    VMasseur-kiné.C.Santé(CE) M-Kiné.CSaMasseur-kinésithérapeute cadre santé(extinction)  PNMSOIRED      0000000000VVEVEEEEE0               28012130    01221 FI    2001-1375 2012-1465             A  G250C12 1    A202PN                 05U20     
GR275320020101C310363000123120120229HEBRUN0       VINFIRMIER D.E.Cl.Sup     Inf.DE C.SInfirmier Diplômé d'Etat de Classe Supérieure     PNMSOISMD      0000000000VVEVEEEEE0               27532210    02221 CC    2001-1374                       B      D15       205PN                 05C10     
GMA40019870801C000003000123120010101AGIRH40       VASSIST.SPECIAL.PHARM     ASSIST.SPEAssistant Pharmacien Spécialiste des Hôpitaux     PMDASSPHAPLE9000000000000EEEEEVEEE063             AH01113G    121         87-788                                              ZH      980031456            
GMC24220101001C000003000123120101216CRIH010       VPharm.contr.TPA miss.spé Prat.contrPraticien contr.pharma.T.Part.miss.spé(grille TPL)PMDPRAPHAPAR9700000000000EEEEEVEEE06A 6C 69       PH01113F    140         2010-1137                                           ZH      989972052            
GR2D1720121229C000003000123120130205CRIH010       VDiététi.CadSup.Santé ParaDiétét.CSaDiététicien cadre sup. santé paramédical          PNMSOIRED      0000000000VVEVEEEEE0               2D012130    01221 FT    2012-1466                       A  G200C12 1    A207ZH                 05U10     
GMM71320001101C000003000123120010101AGIRH40       VPRATIC.CHEF SERV.Ple     PRATIC.CHEPraticien Hospitalier, Chef de Service temps pleinPMDPRAMEDPLE9200000000000EEEEEVEEE066             PH01111F    121         2000-503                                            ZH        0011 52            
GR275A20110630C000003000123120110712CRIH010       VPédicure-Podologue C.S   Pédicur CSPédicure-Podologue Classe Supérieure              PNMSOIRED      0000000000VVEVEEEEE0               273A2420    02221 FE    2011-746                        B  G280D15  0471A275PN                           
GR2A0820101201C000003000123120111117CRIH010       VInf. S.G(aut) 1er grade  ISGS1 AUTOInfirmier soins généraux (autorisé) 1er grade     PNMSOISMD      0000000000VVEVEEEEE0               2A012210    02221 CC    2010-1139                       A      D12 3     21AZH                 05C10     
GMS18120000901C000003000123120010101AGIRH40       VMCU-PH CSERD T.Plein     MCU-PH CSEMaître Conférence Universités-PH des CSERD T.PleinPMDPRAODOPLE9530000000000EEEEEVEEE054             S181112B    131         A-13/11/00                                          ZH      040021 57            
GRX60620070901C000003000123120071010CRIH015379    VEtudiant Ergothérapeute  Etud.Ergo Etudiant Ergothérapeute                           PNMDIVSMD      0000000000EEEEVEEEE03L             0000                                                                        ZH                           
GR292519720101C000003000123120030718CRIH010       VELEVE STAG.EDUC.SPEC     El.St.Ed.SElève Stagiaire Educateur Spécialisé              PNMSOISED      0000000000VVEVEEEEE0               29213130    02251 KF    72-903                                              ZH                           
GMM41720001101C000003000123120110920CRIH010       VODONT.PH ASSOCIE.Ple     ODONT.PH AOdontologiste PH Temps Plein, Associé             PMDPRAODOPLE9200000000000EEEEEVEEE066             PH01112F    121         2000-503                                            ZH      980211052  ODO01     
GR041119900101C000003000123120041103CRIH010       VChef de Bureau  (C.E.)   Ch.Bureau Chef de Bureau (cadre extinction)                 PNMADMADM      0000000000VVEVEEEEE0               04111220    02111 BA    90-839    2001-1207 0422        A      A13       005ZH                 45S40     
GMP02319600101C000003000123120010101AGIRH40       VPROF.U.S.CHA.Ch.S Pa     PROF.U.S.CProfesseur sans chaire Univ.Ch.Service T.Partiel  PMDPRAMEDPAR9600000000000EEEEEVEEE050             PT00111G    113         60-1030                                             ZH      030012 52            
GME21119990901C000003000123120110916CRIH010       VETUDIANT ODONTOLOGIE     ETUDIANT OEtudiant en Odontologie (1ère et 2ème années)     PMDETDODOPLE7030000000000EEEEEEEVE080             ETOD        140         99-1111                                             ZH      980121054  ETOD0     
GMM31920001101C000003000123120010101AGIRH40       VPHARM.PH REMPLAC.Ple     PHARM.PH RPharmacien PH Temps Plein, Remplaçant             PMDPRAPHAPLE9200000000000EEEEEVEEE066             PH01113E    121         2000-503                                            ZH        0171 59            
GRX10019910101C000003000123120051209CRIH010       VAssistant acc. familial  Ass.Ac.FamAssistant d'accueil familial                      PNMDIVSED      0000000000EEEEVEEEE03F             00002630                                                                    ZH                           
GMC11220101001C000003000123120120322CRIH0114113   VPrat.contractuel TPA     Prat. contPraticien contractuel temps partiel (Grille TPL)  PMDPRAMEDPAR9700000000000EEEEEVEEE06C 69          PH01111M    122         2010-1137                                           ZH      989972052            
GMS11020030901C000003000123120040113CRIH019446    VProf Univ  PH CSERD Cons PROF.UNIV-Prof. Univ / Prat. Hosp. CSERD Consultant         PMDPRAODOPLE9630000000000EEEEEVEEE054             S111112A    131         2003-993                                            ZH      010021057            
GMS05119810128C000003000123120010101AGIRH40       VPROF.2Gr-ODON Pl CE      PROF.2Gr-OProfesseur 2ème grade-Odontologiste T.Plein (CE)  PMDPRAODOPLE9630000000000EEEEEVEEE055             ED06112A    131         81-61                                               ZH        0021 57            
GR211620020101C000003000123120110520CRIH018604    VDirecteur soin f.c. 1e clDir.Soins1Directeur des soins institut form.cadre 1e cl     PNMADMADM      0000000000VEEEEEEEE0               21131300    01221 CA    2002-550                        A  G115Q10       204ZH                 45C40     
GR205720121229C000003000123120130211CRIH018322    VDiététic.CSup.Santé/F(CE)Diétét.CSaDiététicien cadre sup. santé formateur(extinction)PNMSOIECO      0000000000VVEVEEEEE0               20012130    02121 LB    2001-1375 2012-1465             A  G200K12 1    A202ZH                 05X10     
GR318220060227C000003000123120060310CRIH010       VAIDE PHARMACIE C.Sup     Aide-PharmAide de Pharmacie Classe Supérieure               PNMMDTMDT      0000000000VVEVEEEEE0               ECE4412A    03331 GB    2006-227                        C      E18       330PN                           
GMP24120001101C000003000123120010101AGIRH40       VPRAT.HOSP. T.Par         PRAT.HOSP.Praticien Hospitalier Temps Partiel               PMDPRAMEDPAR9300000000000EEEEEVEEE068             PP01111G    122         2000-504                                            ZH      970022352            
GMN03720000901C000003000123120010101AGIRH40       VMAITRE CONF-PH Ch.S      MAITRE CONMaître de Conférence-Pratic.Hosp, Chef de Service PMDPRAMEDPLE9500000000000EEEEEVEEE053             EH05111B    111         A-13/11/00                                          ZH      040011 57            
GR601219900101C000003000123120050322CRIH010       VPSYCHOLOGUE Cl.Nor       Psychol.CNPsychologue de Classe Normale                     PNMSOIPSY      0000000000VVEVEEEEE0               60122710    01251 KC    91-129                          A      S12 2     281PN                 05O10     
GR001720050805C000003000123120051118CRIH010       VDirecteur étab emp. fonc.Direct.fonDirecteur établissements emploi fonctionnel       PNMADMDIR      0000000000VEEEEEEEE0               00071110    01100 AA    2005-922                        A      R100      001ZH                           
GMM90519700101C000003000123120010101AGIRH40       VADJOINT PROV.(AM) Pl     ADJOINT PRAdjoint titre provisoire (Arr.Ministériel) T.PleinPMDPRAMEDPLE   0000000000EEEEEVEEE061             DIVM111L                                                                    ZH        0181 59            
GMI06119991112C000003000123120110919CRIH010       VINTERNE MEDECINE GEN     INTERNE MEInterne en Médecine Générale                      PMDINTMEDPLE7110000000000EEEEEEVEE077             INT0211B    140         99-930                                              ZH      980091053  INME0     
GMP51119610401C000003000123120010101AGIRH40       VMEDECIN Ch.SER.T.Pa      MEDECIN ChMédecin, Chir, Spéc, Biol. Chef Service T.Partiel PMDPRAMEDPAR9600000000000EEEEEVEEE056             PT01111H    113         60-1030   85-384                                    ZH        0012 52            
GR053120020101C000003000123120020329CRIH018283    VDIR.ETS SAN.SOC. H.C     Dir.ESS.hcDirecteur Etab.Sanitaire et Social hors classe    PNMADMDIR      0000000000VEEEEEEEE0               05311110    01100 AA    2001-1343                       A      R100      002ZH                           
GR212320020101C000003000123120110520CRIH018604    VDirecteur soins S.I. 2 clDir.soins2Directeur des soins services infirmiers 2e classe PNMADMADM      0000000000VEEEEEEEE0               21231400    01221 CA    2002-550                        A      Q10       204ZH                 45C30     
GMC02119600101C000003000123120010101AGIRH40       VMEDECIN CONTRACTUEL      MEDECIN COMédecin, Chirurgien, Spécialiste, Biolog. Odonto. PMDPRAIND   9700000000000EEEEEVEEE069             DIVM        140                                                             ZH      9799774              
GR233420020101C000003000123120110527CRIH010       VSAGE-FEMME CN            Sage-FemmeSage-Femme Classe Normale                         PNMSOISMD      0000000000VVEVEEEEE0               23342810    01221 DB    2002-37                         A      C12 3     279PM                 05F10     
GR156420060227C000003000123120080115CRIH010       VPerm.Aux.Régul Médicale  Perm.Aux. Permanencier Auxiliaire de Régulation Médicale    PNMADMADM      0000000000VVEVEEEEE0               ECE41220    03111 BG    2006-227                        C      B19       030PN                 40F30     
GR285420121229C000003000123120130211CRIH018322    VPsychomot. C.Santé F(CE) PsyMot.MonPsychomotricien cadre santé formateur(exctinction)PNMSOIECO      0000000000VVEVEEEEE0               28012130    02121 LB    2001-1375 2012-1465             A  G290K12 1    A202ZH                 05X10     
GR2C0120121229C000003000123120130205CRIH010       VInfirmier Cad.Santé Para Inf c.san Infirmier cadre santé paramédical                 PNMSOISMD      0000000000VVEVEEEEE0               2C012120    01221 CP    2012-1466                       A      C12 1    A207PM                 05U20     
GMV31620030101C000003000123120031125CRIH019386    VAttaché anc.ass.spéc.hôp Attaché AnAttaché ancien assistant spécialiste des hôpitaux PMDATTMED   9050000000000EEEEEVEEE06V 6W          AT00111K    140         2003-769                                            ZH      980083352            
GR125C20110616C000003000123120110617CRIH019999    VAdj.cadres Hosp.Cl.Exc.  Ad.Cad.H EAdjoint des Cadres Hospitaliers Cl.Exceptionnelle PNMADMADM      0000000000VVEVEEEEE0               125C1220    02111 BB    2011-660                        B      A16  0524A010PN                 45S40     
GMV36220030101C000003000123120031125CRIH019386    VAtt.cons.anc.ass.hosp.uniAttaché CoAttaché consultant anc.assistant hosp.univ.       PMDATTMED   9050000000000EEEEEVEEE06V 6W          AT00111K    140         2003-769                                            ZH      980083352            
GR281520121229C000003000123120130225CRIH018322    VOrthophoniste C.San.(CE) Orthoph CSOrthophoniste cadre santé (extinction)            PNMSOIRED      0000000000VVEVEEEEE0               28012130    02221 FQ    2001-1375 2012-1465             A  G260C12 1    A202PN                 05U20     
GR003120000314C000003000123120010101AGIRH40       VDIRECTEUR 3ème Cl.       Direct.3clDirecteur 3ème classe                             PNMADMDIR      0000000000VEEEEEEEE0               00311110    01100 AA    2000-232                        A      R100      001ZH                           
GMP11119600101C000003000123120010101AGIRH40       VPRAT.H-U Ch.SERV.Par     PRAT.H-U CPraticien Hospitalo-Univ,Chef de Service T.PartielPMDPRAMEDPAR9600000000000EEEEEVEEE056             PT01111H    113         60-1030                                             ZH      970012 52            
GR007820050805C000003000123120051118CRIH010       VDirecteur classe provis. Direct.ProDirecteur classe provisoire                       PNMADMDIR      0000000000VEEEEEEEE0               00781110    01100 AA    2005-921                        A      R100      001ZH                           
GR286120121229C000003000123120130211CRIH018322    VPrép.phar.hsp.C.Sa F(CE) Pr.Phar.CSPréparateur pharm. hosp. c.santé form(exctinction)PNMMDTMDT      0000000000VVEVEEEEE0               28014120    02331 GA    2001-1375 2012-1465             A  G330D12 1    A202ZH                 05X10     
GMT01319810128C000003000123120010101AGIRH40       VPROF.1G-OD ChS Pa CE     PROF.1G-ODProf.1er grade-Odontologiste Ch.Serv. T.Part. (CE)PMDPRAODOPAR9630000000000EEEEEVEEE055             ED07112A    132         81-61                                               ZH        0012 57            
GR275D20110630C000003000123120110712CRIH010       VPsychomotricien C.S      Psy-Mot.CSPsychomotricien Classe Supérieure                 PNMSOIRED      0000000000VVEVEEEEE0               273A2470    02221 FF    2011-746                        B  G290D15  0471A265PN                 05I70     
GR563220070701C000003000123120110419CRIH0111722   VRadiophysicien           RadioPhysiRadiophysicien                                    PNMMDTMDT      0000000000VVEVEEEEE0               56324140    01331 HA    2007-875                        A      F11       320ZH                 05L40     
GMP90119700101C000003000123120010101AGIRH40       VC.SERV.PROV.(A.M) Pa     C.SERV.PROChef Service titre prov.(Arr.Ministériel) T.Part. PMDPRAMEDPAR   0000000000EEEEEVEEE061             DIVM111L    140                                                             ZH        0012 59            
GMI20119991112C000003000123120110919CRIH010       VINTERNE ODONTOLOGIE      INTERNE ODInterne en Odontologie                            PMDINTODOPLE7130000000000EEEEEEVEE077             INT0213A    140         99-930                                              ZH      980071053  INOD0     
GR301320070625C000003000123120080908CRIH010       VAide-Soignant CE         Aide-Soi EAide-Soignant de CE                               PNMSOISMD      0000000000VVEVEEEEE0               EAE62510    03221 EB    2007-1188                       C      E18       228PN                 05R10     
GMI08320021001C000003000123120110919CRIH010       VInterne Spé titre étrang.Interne spInterne de Spécialité à titre étranger            PMDINTMEDPLE7110000000000EEEEEEVEE077             INT0211A    140         2001-46                                             ZH      980091053  INME0     
GMT16519900101C000003000123120010101AGIRH40       VASS.H-U CSERD As.Par     ASS.H-U CSAssistant Hospit.Univ.CSERD Associé, T.Partiel    PMDASSODOPAR9130000000000EEEEEVEEE054             T161112C    132         90-92                                               ZH      070032 57            
GR282220121229C000003000123120130208CRIH018322    VTech. lab. Cad.Santé(CE) Tec.Lab.CSTechnicien de laboratoire cadre santé(extinction) PNMMDTMDT      0000000000VVEVEEEEE0               2801411A    01331 GH    2001-1375 2012-1465             A  G310C12 1    A202PN                 05U20     
GMM51219850101C000003000123120010101AGIRH40       VPROF.UNIV-PH Ch.S        PROF.UNIV-Professeur Universités.-Pratic.Hosp, Chef Service PMDPRAMEDPLE9600000000000EEEEEVEEE053             M012111A    111         84-135                                              ZH      010011 57            
GMA41019870801C000003000123120010101AGIRH40       VASSIS.SPEC.ASS.PHARM     ASSIS.SPECAssistant Pharmacien Spécialiste Associé          PMDASSPHAPLE9000000000000EEEEEVEEE063             AH03113G    121         87-788                                              ZH      980031456            
GMI10319991112C000003000123120010101AGIRH40       VD.I.S en ODONTOLOGIE     D.I.S en OD.I.S. Faisant Fonction d'Interne en Odontologie  PMDINTODOPLE7300000000000EEEEEEVEE077             FFI0222C    140         99-930                                              ZH        0071 53            
GR276A20110630C000003000123120110705CRIH010       VPrép.Pharm.Hosp.C.S.     Pr.Phar.CSPréparateur Pharmacie Hospitalière C.S.           PNMMDTMDT      0000000000VVEVEEEEE0               273A4120    02331 GM    2011-748                        B  G330D15  0471A300PN                 05L20     
GMP02619600101C000003000123120010101AGIRH40       VPROF.U.PERSO.NChS Pa     PROF.U.PERProfesseur titul.perso.Univ.T.Partiel             PMDPRAMEDPAR9600000000000EEEEEVEEE050             DIVM111G    113         60-1030                                             ZH      020022 52            
GR245B20110630C000003000123120110704CRIH010       VMasseur Kinési. C.N      M-Kiné. CNMasseur-Kinésithérapeute Classe Normale           PNMSOIRED      0000000000VVEVEEEEE0               243A2410    02221 FB    2011-746                        B  G250D15  0394A270PN                 05I30     
GMS11320070801C000003000123120080403CRIH0112347   VPROF.UNIV-PH CSERD       PROF.UNIV-Professeur Universités-PH des CSERD               PMDPRAODOPLE9630000000000EEEEEVEEE054             S113112A    131         a 22-02-08                                          ZH      010021057            
GMC22019930329C000003000123120010101AGIRH40       VPHAR.CONT./P.INTERNE     PHAR.CONT.Pharmacien Contractuel sur poste Interne/Résident PMDPRAPHAPLE9700000000000EEEEEVEEE06B 69          AH01113F    140         93-701                                              ZH           1 56            
GMH30120000701C000003000123120010101AGIRH40       VPRAT.AD.CONT.MED.Par     PRAT.AD.COPraticien Adjoint Contractuel Médecin T.Partiel   PMDPRAMEDPAR9800000000000EEEEEVEEE052             PAC1111N    140         2000-774                                            ZH      980232352            
GR318520060227C000003000123120120120CRIH010       VAide Electro.C.Normale   Aide-ElectAide Electroradiologie Cl.Normale                 PNMMDTMDT      0000000000VVEVEEEEE0               ECE34140    03331 GF    2006-227                        C      E18       315ZH                           
GMI06420110601C000003000123120110712CRIH0114562   VStagiaire associé médecinStagAss   Stagiaire associé médecin                         PMDINTMEDPLE7300000000000EEEEEEVEE077             FFI0222A    140         R6134-2                                             ZH      980091053            
GRX11019750101C000003000123120130315CRIH010       VAssistante Maternelle    Ass. Mat  Assistante Maternelle                             PNMDIVDIV      0000000000EEEEVEEEE03M             00002620                                                                    ZH                           
GMN08620060526C000003000123120070104CRIH0111262   VMAITRE CONF-PH non chef  Maitre conMaître de Conférence-Praticien Hosp non chef serv PMDPRAMEDPLE9500000000000EEEEEVEEE053             EH05111B    111         2006-593                                            ZH      040021057            
GMM12519870805C000003000123120010101AGIRH40       VASSIST.HOSP.UNIVERS.     ASSIST.HOSAssistant Hospitalier Universitaire               PMDASSMEDPLE9100000000000EEEEEVEEE058             EH03111C    111         87-622                                              ZH      070031 57            
GR212620020101C000003000123120110520CRIH018604    VDirecteur soins f.C.2 cl Dir.soins2Directeur des soins institut formation cadre 2e clPNMADMADM      0000000000VEEEEEEEE0               21231300    01221 CA    2002-550                        A  G115Q10       204ZH                 45C40     
GR2D0220121229C000003000123120130205CRIH010       VI.Bl.Op CadSup.Santé paraInf.Bl.CSaInf. bloc opératoire cadre sup.santé paramédical  PNMSOISMD      0000000000VVEVEEEEE0               2D012120    01221 CH    2013-1466                       A  G230C12 1    A207PM                 05U10     
GR002720000314C000003000123120010101AGIRH40       VDIRECT.Et.Annexe 2Cl     Dir.Et.AnnDirecteur Etablissement Annexe 2ème classe        PNMADMDIR      0000000000VEEEEEEEE0               00211110    01100 AA    2000-232                        A      R100      001ZH                           
GMM91519700101C000003000123120010101AGIRH40       VADJOINT PROV.(AP) Pl     ADJOINT PRAdjoint titre provisoire (Arr.Préfectoral) T.PleinPMDPRAMEDPLE   0000000000EEEEEVEEE061             DIVM111L                                                                    ZH        0181 59            
GMI07119991112C000003000123120010101AGIRH40       VRESIDENT en MEDECINE     RESIDENT eRésident en Médecine                              PMDINTMEDPLE7210000000000EEEEEEVEE077             INT0211B    140         99-930                                              ZH        0091 53            
GR285720121229C000003000123120130211CRIH018322    VDiététic. C.Santé Fo(CE) Diétét.MonDiététicien cadre santé formateur(exctinction)    PNMSOIECO      0000000000VVEVEEEEE0               28012130    02121 LB    2001-1375 2012-1465             A  G200K12 1    A202ZH                 05X10     
GR125820061101C000003000123120070611CRIH010       VAdjt.Cadres Cl.N. Stag   Ad.Cad.H NAdjoint des Cadres Hospit. Cl.Normale (stagiaire) PNMADMADM      0000000000VEEEEEEEE0               12581220    02111 BB    2007-841                        B      A16       010ZH                           
GMP52119610401C000003000123120010101AGIRH40       VASSISTANT T.Partiel      ASSISTANT Assistant en Médecine, Chir, Spéc, Biol. T.PartielPMDASSMEDPAR9000000000000EEEEEVEEE056             DIVM111H    113         60-1030   85-384                                    ZH        0032 52            
GR2C0420121229C000003000123120130205CRIH010       VPuéricult. CadSanté Para Puéri.CSa Puéricultrice cadre santé paramédical             PNMSOISMD      0000000000VVEVEEEEE0               2C012120    01221 CO    2012-1466                       A  G300C12 1    A207PM                 05U20     
GMV31920030101C000003000123120031201CRIH019386    VAttaché Pharmacien       Attaché PhAttaché Pharmacien                                PMDATTMED   9050000000000EEEEEVEEE06V 6W          AT00113H    140         2003-769                                            ZH      980083352            
GMV36520030101C000003000123120031125CRIH019386    VAtt.cons.anc.ass.géné.hôpAttaché CoAttaché consultant anc.assistant généraliste hôp. PMDATTMED   9050000000000EEEEEVEEE06V 6W          AT00111K    140         2003-769                                            ZH      980083352            
GMA30019870801C000003000123120010101AGIRH40       VASSISTANT SPECIALIST     ASSISTANT Assistant Spécialiste des Hôpitaux                PMDASSMEDPLE9000000000000EEEEEVEEE063             AH01111J    121         87-788                                              ZH      980031456            
GR003420000314C000003000123120010101AGIRH40       VDIRECT.ADJOINT 3 Cl      Dir.Adj. 3Directeur Adjoint 3ème classe                     PNMADMDIR      0000000000VEEEEEEEE0               00311110    01100 AA    2000-232                        A      R100      001ZH                           
GR311420060227C000003000123120090403CRIH010       VAide-Techn. Labo (CE)    A-T Lab CEAide Technique Laboratoire (Cadre d'extinction)   PNMMDTMDT      0000000000VVEVEEEEE0               ECE5411C    03331 GD    2006-227                        C      E18       310ZH                           
GMF16319991112C000003000123120010101AGIRH40       VD.I.S en  PHARMACIE      D.I.S en  D.I.S. Faisant Fonction d'Interne en Pharmacie    PMDINTPHAPLE7300000000000EEEEEEVEE077             FFI0222B    140         99-930                                              ZH        0101 53            
GMC30120101001C000003000123120101216CRIH0114113   VPrat.contr.odonto.TPL    Prat.contrPraticien contractuel  odontologiste T.Plein      PMDPRAODOPLE9700000000000EEEEEVEEE06B 69          PH01113F    140         2010-1137                                           ZH      989971056            
GR2C1120121229C000003000123120130205CRIH010       VPédi-pod.C.Santé Para    Pédic.C.SaPédicure-podologue cadre santé paramédical        PNMSOIRED      0000000000VVEVEEEEE0               2C012130    01221 FK    2012-1466                       A  G280C12 1    A207PN                 05U20     
GR275G20110630C000003000123120110712CRIH010       VDiététicien C.S          Diététi.CSDiététicien Classe Supérieure                     PNMSOIRED      0000000000VVEVEEEEE0               273A2450    02221 FH    2011-746                        B  G200D15  0471A255PN                 05I10     
GR301620070625C000003000123120080908CRIH010       VA.S. Auxil.Puéric. CE    Aux.Puér EA.S. Auxiliaire Puériculture CE                   PNMSOISMD      0000000000VVEVEEEEE0               EAE62530    03221 EC    2007-1188                       C      E18       228PN                 05R50     
GR147619900101C000003000123120110520CRIH010       VADJOINT ADMINIST.CTS     Ad.Adm.2clAdjoint Administratif Hospitalier 2° Classe CTS   PNMADMCTS      0000000000VVEVEEEEE0               4   1220    03111 BC    90-839                          C4     B19       020ZH                 45S20     
GMF06520061101C000003000123120110919CRIH0112226   VInterne Pharmacie (rech) Interne PhInterne en Pharmacie en année-recherche           PMDINTPHAPLE7120000000000EEEEEEVEE077             INTR        140                                                             ZH      980101053  INPH0     
GR245719950801C310363000123120120229HEBRUN0       VDIETETICIEN      C.N     Diététi.CNDiététicien Classe Normale                        PNMSOIRED      0000000000VVEVEEEEE0               24502450    02221 FH    96-92                           B  G200D15       255PN                 05I10     
GMP12119600101C000003000123120010101AGIRH40       VASSISTANT H-U Par        ASSISTANT Assistant Hospitalo-Universitaire T.Partiel       PMDASSMEDPAR9000000000000EEEEEVEEE056             DIVM111I    113         60-1030                                             ZH      070032 52            
GR204220121229C000003000123120130211CRIH018322    VI.B.O.D.E CSup.Santé/F(CEInf.Bl.CSaI.bloc opératoire cadre sup.santé form(extinction)PNMSOIECO      0000000000VVEVEEEEE0               20012120    02221 LB    2001-1375 2012-1465             A  G230K12 1    A202ZH                 05X10     
GR245E20110630C000003000123120110712CRIH010       VOrthophoniste C.N        Orthoph.CNOrthophoniste Classe Normale                      PNMSOIRED      0000000000VVEVEEEEE0               243A2430    02221 FG    2011-746                        B  G260D15  0394A240PN                 05I20     
GR000220090723C000003000123120121119CRIH0115042   VDirecteur Général (HED)  Direct.GénDirecteur Général rémunéré Hors Echelle D         PNMADMDIR      0000000000VVEEEEEEE0               00021110    01100 AA    2012-735                        A      R100     C001ZH                           
GMP91119700101C000003000123120010101AGIRH40       VC.SERV.PROV.(A.P) Pa     C.SERV.PROChef Service titre prov.(Arr.Préfectoral) T.Part. PMDPRAMEDPAR   0000000000EEEEEVEEE061             DIVM111L    140                                                             ZH        0172 59            
GR200320121229C000003000123120130211CRIH018322    VI.A.D.E CadSup.Santé(CE) Inf.An.CSaInfirmier anesthésiste cadre sup. santé(extinctionPNMSOISMD      0000000000VVEVEEEEE0               20012120    01221 CF    2001-1375 2012-1465             A  G220C12 1    A202PM                 05U10     
GMM21920001101C000003000123120010101AGIRH40       VPRAT.HOS.REMPLAC.Ple     PRAT.HOS.RPraticien Hospitalier Remplaçant temps plein      PMDPRAMEDPLE9200000000000EEEEEVEEE066             PH01111L    121         2000-503                                            ZH           1 59            
GR585A20110630C000003000123120120217CRIH0114582   VTechnicien hospitalier   Tech.Hos  Technicien hospitalier                            PNMTECTEC      0000000000VVEVEEEEE0               125A511A    02441 HW    2011-744                        B      F14  0393A407PM                           
GR267520070808C000003000123120080908CRIH010       VEduc.J.Enfants CS        Ed.J.E.CS Educateur de Jeunes Enfants CS                    PNMSOISED      0000000000VVEVEEEEE0               26753130    02251 KB    2007-1190                       B      N15       287PN                 10F20     
GMR18120000901C000003000123120010101AGIRH40       VMCU-PH CSERD T.Plein     MCU-PH CSEMaître Conférence Universités-PH des CSERD T.PleinPMDPRAODOPLE9530000000000EEEEEVEEE054             ED11112B    131         A-13/11/00                                          ZH      04   1 57            
GR246B20110630C000003000123120110712CRIH010       VTechnicien Laboratoire CNTec.Lab.CNTechnicien de Laboratoire Classe Normale          PNMMDTMDT      0000000000VVEVEEEEE0               243A411B    02331 GC    2011-748                        B  G310D15  0394A310PN                 05L10     
GR294520070625C000003000123120070910CRIH010       VElève Aide-Soignant Ech 4Elève A-S Elève Aide-Soignant Echelle 4                     PNMSOISMD      0000000000VEEEEEEEE012 09          ECE42510    03221 EE    2007-1188                       C      D10          ZH                           
GR047019900101C000003000123120041103CRIH010       VChef de Bureau CTS (C.E.)Ch.Bur.CTSChef de Bureau de CTS (cadre extinction)          PNMADMCTS      0000000000VVEVEEEEE0               04111220    02111 BA    90-839    2001-1207 0422        A      A13       005ZH                 45S40     
GR273B20101201C000003000123120110712CRIH010       VINF.AUTORISE C.Sup (C.E.)Inf.Aut.CSInf. Autorisé Cl.Supérieure (cadre extinction)    PNMSOISMD      0000000000VVEVEEEEE0               273A2210    02221 CC    2010-1140                       B      D15      B205ZH                 05C10     
GMV30120030101C000003000123120031117CRIH019386    VAttaché                  Attaché   Attaché                                           PMDATTMED   9050000000000EEEEEVEEE06V 6W          AT00111K    140         2003-769                                            ZH      980083352            
GR561019910101C000003000123120110419CRIH010       VRADIOPHYSICIEN  Cl.1     RadioPhysiRadiophysicien classe 1                           PNMMDTMDT      0000000000VVEVEEEEE0               56104140    01331 HA    DH/8D/91-2                      A      F11       320ZH                 05L40     
GR016120080101C000003000123120080211CRIH0112186   VDIR.ETS SAN.SOC. H.C     Dir.ESS.hcDirecteur Etab.Sanitaire et Méd.Social hors classePNMADMDIR      0000000000VEEEEEEEE0               01611110    01100 AA    2007-1930                       A      R100      002ZH                           
GMU16319990519C000003000123120010101AGIRH40       VASS.H-U CSERD Plein      ASS.H-U CSAssistant Hospit.Universitaire CSERD, T.Plein     PMDASSODOPLE9130000000000EEEEEVEEE054             ED10112C    131         99-378                                              ZH      070031 57            
GR145119960801C310363000123120120229HEBRUN0       VSECR.MEDICAL Cl.Nor.     Secr.Méd.NSecrétaire Médical Classe Normale                 PNMADMADM      0000000000VVEVEEEEE0               12511210    02111 BE    94-1096                         B      B16       015PN                 40L20     
GR243219930801C310363000123120120229HEBRUN0       VINFIRMIER D.E.Cl.Nor     Inf.DE C.NInfirmier Diplômé d'Etat de Classe Normale        PNMSOISMD      0000000000VVEVEEEEE0               24322210    02221 CC    94-73                           B      D15       205PN                 05C10     
GRX12020050629C000003000123120130315CRIH010       VAssistant Familial       Ass.Famil.Assistant Familial                                PNMDIVDIV      0000000000EEEEVEEEE03M             00002630                                                                    ZH                           
GR2B0120101201C000003000123120130416CRIH010       VInf.Soins Généraux 2ème GISGS 2    Infirmier en soins généraux 2ème grade            PNMSOISMD      0000000000VVEVEEEEE0               2A022210    02221 CC    2010-1139                       A      D12 3     21APN                 05C10     
GMR11020030901C000003000123120040113CRIH019446    VProf. Univ  PH CSERD ConsPROF.UNIV-Prof. Univ / Prat. Hosp. CSERD Consultant         PMDPRAODOPLE9630000000000EEEEEVEEE054             ED00112A    131         2003-993                                            ZH      010021057            
GR2D1220121229C000003000123120130205CRIH010       VM-kiné.CadSup.Santé Para M-Kiné.CSaMasseur-kiné cadre sup. santé paramédical         PNMSOIRED      0000000000VVEVEEEEE0               2D012130    01221 FA    2012-1466                       A  G250C12 1    A207ZH                 05U10     
GMV36820030101C000003000123120031201CRIH019386    VAttaché Consultant OdontoAttaché OdAttaché Consultant Odontologiste                  PMDATTMED   9050000000000EEEEEVEEE06V 6W          AT00112E    140         2003-769                                            ZH      980083352            
GMN01020030901C000003000123120040113CRIH019446    VProf Univ  Prat Hosp ConsPROF.UNIVEProf. Univ / Prat. Hosp. Consultant               PMDMEDMEDPLE9600000000000EEEEEVEEE053             EH00111A    111         2003-993                                            ZH      010021057            
GR2A0320120701C000003000123120130201CRIH010       VInf. Anest 3e grade ISGS ISGS 3    Infirmier Anesthésiste 3eme grade ISGS            PNMSOISMD      0000000000VVEVEEEEE0               2A032310    02221 CG    2010-1139                       A      D12 3    A21APN                 05C30     
GRX60119750101C000003000123120010101AGIRH40       VETUDIANT SOINS INFIR     Etud.Inf. Etudiant en Soins Infirmiers                      PNMDIVSMD      0000000000EEEEVEEEE03Z             0000                                                                        ZH                           
GMM03720000901C000003000123120010101AGIRH40       VMAITRE CONF-PH Ch.S      MAITRE CONMaître de Conférence-Pratic.Hosp, Chef de Service PMDPRAMEDPLE9500000000000EEEEEVEEE053             M036111B    111         A-13/11/00                                          ZH      040011 57            
GMP53119610401C000003000123120010101AGIRH40       VASS.ANESTH-REA T.Pa      ASS.ANESTHAssistant en Anesthésie-Réanimation T.Partiel     PMDASSMEDPAR9000000000000EEEEEVEEE056             PT03111H    113         60-1030   85-384                                    ZH        0032 52            
GR2C1420121229C000003000123120130205CRIH010       VPsychomo.C.Santé Para    PsyMot.CSaPsychomotricien cadre santé paramédical           PNMSOIRED      0000000000VVEVEEEEE0               2C012130    02221 FO    2012-1466A                      A  G290C12 1    A207PN                 05U20     
GMM08320060526C000003000123120100222CRIH0111262   VMCU-PH pharm non chef    MCU-PHPharMaître de Conférence Univ-P.H pharm non chef serv PMDPRAMEDPLE9550000000000EEEEEVEEE053             PH01111B    111         2006-593                                            ZH      040021057            
GR261119930101C000003000123120030718CRIH010       VA.S.E.(Educ.Spéc.)       Ass.Soc-EdAssistant Socio-Educatif (Educateur Spécialisé)   PNMSOISED      0000000000VVEVEEEEE0               26113111    02251 KD    93-652                          B      M15       283PN                 10F30     
GR301920070625C000003000123120080908CRIH010       VA.S. Aide Méd-Psy CE     A.Md-Psy.EA.S. Aide Médico-Psycho. CE                       PNMSOISMD      0000000000VVEVEEEEE0               EAE62520    03221 EF    2007-1188                       C      E18       228ZH                 10I10     
GMP90719700101C000003000123120010101AGIRH40       VASSIST.PROV.(A.M) Pa     ASSIST.PROAssistant titre provis.(Arr.Ministériel) T.Part.  PMDMEDMEDPAR   0000000000EEEEEVEEE061             DIVM111L    140                                                             ZH        0172 59            
GMI08920020101C000003000123120130517CRIH018584    VInterne spécialité s.suppInterne spInterne de spécialité semestre supplémentaire     PMDINTMEDPLE7110000000000EEEEEEVEE077             INT0211B    140         2001-23                                             ZH      980091053  INME0     
GR574320070625C000003000123120080908CRIH010       VIngén.Chef CE(dir emp. f)I.Ch.CEdefIngénieur en Chef CE (dir empl fonct)             PNMTECTEC      0000000000VVEVEEEEE0               57435110    01441 HB    2007-1186                       A      F11       400ZH                           
GR430920070625C000003000123120070917CRIH010       VBuandier Ouvrier QualifiéBuand.OPQ Buandier Ouvrier Professionnel Qualifié           PNMTECOUV      0000000000VVEVEEEEE0               ECE45130    03441 HG    2007-1185                       C      H17 2     426ZH                 25O20     
GMA31019870801C000003000123120010101AGIRH40       VASSIST.ASSO.SPECIAL.     ASSIST.ASSAssistant Spécialiste Associé des Hôpitaux        PMDASSMEDPLE9000000000000EEEEEVEEE063             AH03111J    121         87-788                                              ZH      980031456            
GMM56420060526C000003000123120100222CRIH0111262   VPROF.UNIV-PH Pharm Ch.S  PU-PH pharProf. Universités.-Pratic.Hosp, Pharm Chef ServicePMDPRAMEDPLE9600000000000EEEEEVEEE053             PH01111A    111         2006-593                                            ZH      010011057            
GR2C2120121229C000003000123120130205CRIH010       VPrép.pharm.Cad.Santé ParaPr.Phar.CSPrépa. en pharmacie hosp. cadre santé paramédical PNMMDTMDT      0000000000VVEVEEEEE0               2C014120    02331 GA    2012-1466                       A  G330D12 1    A207PN                 05U20     
GR000520050805C000003000123120120705CRIH010       VDirecteur Général        Direct.GénDirecteur Général                                 PNMADMDIR      0000000000VEEEEEEEE0               00051110    01100 AA    2010-629  2012-735  0002        A      R100      001ZH                           
GR609919900101C310363000123120031217INFORM0       VCONTR.EMPLOI JEUNE       C.E.J.    Contrat Emploi Jeune                              PNMDIVDIV      0000000000EEEEVEEEE03C             0000                    90-105                                                                           
GMA42320051202C000003000123120051229CRIH010       VAssist. spé ass pharm NPAAssist spéAssistant spécialiste associé en pharmacie NPA    PMDASSPHAPLE9000000000000EEEEEVEEE06D             AH03113G    121         2005-1475                                           ZH      980031456            
GMP13119600101C000003000123120010101AGIRH40       VASS.H-U ANES-REA Par     ASS.H-U ANAssistant Anesthésie-Réa Hospitalo-Univ.T.Partiel PMDASSMEDPAR9000000000000EEEEEVEEE056             PT03111J    113         60-1030                                             ZH      070032 52            
GR750119930101C000003000123120090313CRIH010       VInstituteur              Institute Instituteur                                       PNMAUT         0000000000VVEEEEEEE0               00002480    014                                                             ZH                           
GR221720020101C000003000123120110527CRIH010       VS. FEMME  C..S.M.E-C     Sage-F.MECSage-Femme cadre Sup. Moniteur Ecole Cadres       PNMSOIECO      0000000000VVEVEEEEE0               22122810    02121 LB    2002-37                         A      K12 1     279ZH                           
GR205220121229C000003000123120130211CRIH018322    VMass-kiné.CSup.Santé/F(CEM-Kiné.CSaMasseur-kiné.cadre sup. santé form.(extinction)   PNMSOIECO      0000000000VVEVEEEEE0               20012130    02121 LB    2001-1375 2012-1465             A  G250K12 1    A202ZH                 05X10     
GMM32120001101C000003000123120010101AGIRH40       VPHARM.PH PROVIS.Ple      PHARM.PH PPharmacien PH Temps Plein à titre provisoire      PMDPRAPHAPLE9200000000000EEEEEVEEE066             PH01113E    121         2000-503                                            ZH        0171 59            
GR001220000314C000003000123120010101AGIRH40       VDIRECTEUR 1ère Cl.       Direct.1clDirecteur 1ère classe                             PNMADMDIR      0000000000VEEEEEEEE0               00121110    01100 AA    2000-232                        A      R100      001ZH                           
GMM01219850101C000003000123120010101AGIRH40       VPROF.UNIV-PH NChS        PROF.UNIV-Professeur Universités -Praticien Hospitalier     PMDPRAMEDPLE9600000000000EEEEEVEEE053             M012111A    111         84-135                                              ZH      010021 57            
GR284220121229C000003000123120130211CRIH018322    VI.B.O.D.E C.Sa For(CE)   Inf.Bl.MonInf.bloc opératoire cadre santé form (exctinction)PNMSOIECO      0000000000VVEVEEEEE0               28012120    02221 LB    2001-1375 2012-1465             A  G230K12 1    A202ZH                 05X10     
GMH20120000701C000003000123120010101AGIRH40       VPRAT.AD.CONT.PHA.Pl.     PRAT.AD.COPraticien Adjoint Contractuel Pharmacien T.Plein  PMDPRAPHAPLE9800000000000EEEEEVEEE052             PAC1113I    140         2000-774                                            ZH      980231456            
GR201320121229C000003000123120130211CRIH018322    VErgothér. C.Sup.Santé(CE)Ergoth.CSaErgothérapeute cadre sup. santé(extinction)       PNMSOIRED      0000000000VVEVEEEEE0               20012130    02221 FL    2001-1375 2012-1465             A  G210C12 1    A202ZH                 05U10     
GMM22320060101C000003000123120060607CRIH010       VPrat hosp tps plein probaPrat hosp Praticien hospitalier temps plein probatoire      PMDPRAMEDPLE9200000000000EEEEEVEEE066             PH01111F    121         R6152-13                                            ZH      980021056            
GR280320121229C000003000123120130208CRIH018322    VI.A.D.E Cad.Santé (CE)   Inf.An.CSaInfirmier anesthésiste cadre santé (extinction)   PNMSOISMD      0000000000VVEVEEEEE0               28012120    01221 CM    2001-1375 2012-1465             A  G220C12 1    A202PM                 05U20     
GR422520070625C000003000123120090525CRIH010       VMAITRE OUVRIER PRINC     Mait-Ouv.PMaître Ouvrier Principal                          PNMTECOUV      0000000000VVEVEEEEE0               EBE65130    02441 HF    2007-1185                       C      H17 1     426PN                           
GMY70019600101C000003000123120010101AGIRH40       VDIVERS MEDICAL           DIVERS MEDDivers Médical                                    PMDAUTIND      0000000000EEEEEVEEE09Z             DIVM1220                                                                    ZH      98997  59            
GR145B20110616C000003000123120120217CRIH019999    VAssist.médico-adm Cl Sup Assis Sup Assistant médico-administratif Classe Supérieure  PNMADMADM      0000000000VVEVEEEEE0               125B1210    02111 BJ    2011-660                        B      B16  0422A016PN                 40L20     
GMV31120030101C000003000123120031125CRIH019386    VAttaché anc chef cliniqueAttaché anAttaché anc.chef clinique des uni.-assistant hôp  PMDATTMED   9050000000000EEEEEVEEE06V 6W          AT00111K    140         2003-769                                            ZH      980083352            
GRX90019750101C000003000123120010101AGIRH40       VRECEVEUR                 Receveur  Receveur                                          PNMDIVDIV      0000000000EEEEVEEEE03Z             0000                                                                        ZH                           
GR562019910101C000003000123120110419CRIH010       VRADIOPHYSICIEN  Cl.2     RadioPhysiRadiophysicien classe 2                           PNMMDTMDT      0000000000VVEVEEEEE0               56204140    01331 HA    DH/8D/91-2                      A      F11       320ZH                 05L40     
GR264620070808C000003000123120080908CRIH010       VEducateur Tech.Spec.CN   Ed.T.Sp CNEducateur Technique Spécialisé CN                 PNMSOISED      0000000000VVEVEEEEE0               26463130    02251 KD    2007-1190                       B      M15       286ZH                 10F30     
GR243C20101201C000003000123120101217CRIH010       VINF.PSYCH. Cl.Nor (C.E.) Inf.Psy.CNInf.Psychiatrique Cl. Normale (cadre extinction)  PNMSOISMD      0000000000VVEVEEEEE0               243A2220    02221 CK    2010-1140                       B      D15       205ZH                 05C10     
GRX99919010101C310363000123120040109FORM100       VAYANT DROIT SFT          AD SFT    AYANT DROIT SFT                                   PNMDIVDIV      0000000000EEEEVEEEE03S             0000                                                                                                     
GMN52019850101C000003000123120010101AGIRH40       VPROF.U-PH Ch.S Prov.     PROF.U-PH Professeur Universités.-Pratic.Hosp, Ch.Serv.Prov.PMDPRAMEDPLE9600000000000EEEEEVEEE053             EH00111A    111         84-135                                              ZH      010011 57            
GR2B0420120701C000003000123120130611CRIH010       VPuéricultrice 3ème Grade PUE ISGS 3Puéricultrice 3ème grade ISGS                     PNMSOISMD      0000000000VVEVEEEEE0               2A032340    02221 CE    2010-1139                       A      D12 3    A21APN                 05C40     
GR269220030101C310363000123120061117SAGENT0       VTECHNICIEN D'ANIMATION   Animateur Technicien d'Animation Chef                       PNMSOISED      0000000000VVEVEEEEE0               26923130    02251 KI    93-654                          B      M15       285                             
GR007319950801C000003000123120010101AGIRH40       VECONOME 4 Cl.(CE)        Econom.4clEconome 4ème classe Cadre d'extinction            PNMADMDIR      0000000000VEEEEEEEE0               00711110    01100 AA    96-113                          A      R100      001ZH                           
GR2D1520121229C000003000123120130205CRIH010       VOrthoph.CadSup.Santé ParaOrthophCSaOrthophoniste cadre sup. santé paramédical        PNMSOIRED      0000000000VVEVEEEEE0               2D012130    02221 FP    2012-1466                       A  G260C12 1    A207ZH                 05U10     
GMR11320070801C000003000123120080403CRIH0112347   VPROF.UNIV-PH CSERD       PU.PH CSE Professeur Universités-PH des CSERD               PMDPRAODOPLE9630000000000EEEEEVEEE054             ED13112A    131         A 22-02-08                                          ZH      010021057            
GRX60420030901C000003000123120030911CRIH019305    VEtudiant Manip Radio     Etud.RadioEtudiant Manipulateur Radio                       PNMDIVSMD      0000000000EEEEVEEEE03J             X604                    27/05/2003                                          ZH                           
GMP84320001101C000003000123120110920CRIH010       VODONTO CHEF SERV.Par     ODONTO CHEOdontologiste Temps Partiel, Chef de Service      PMDPRAODOPAR9300000000000EEEEEVEEE068             PP01112G    122         2000-504                                            ZH      980012352  ODO01     
GRX13020080101C000003000123120130315CRIH010       VAccueillant Fam. Social  Acc.Famil.Accueillant Familial Social                       PNMDIVDIV      0000000000EEEEVEEEE03F             00002630                                                                    ZH                           
GMC20120001101C000003000123120010101AGIRH40       VPHAR.CONTRACTUEL Ple     PHAR.CONTRPharmacien Contractuel Temps Plein                PMDPRAPHAPLE9700000000000EEEEEVEEE06B 69          PH01113F    140         2000-503                                            ZH           1 56            
GME51119850331C000003000123120110916CRIH010       VETUDIANT PHARMACIE       ETUDIANT PEtudiant en Pharmacie                             PMDETDPHAPLE7020000000000EEEEEEEVE085             ETPH        140         85-385                                              ZH      980121054  ETPH0     
GMC14220101001C000003000123120130613CRIH010       VPrat.cont.TPar. miss.spé PRAT.CONT.Praticien Contr. T.Partiel miss.spéc.(Grille TPL) PMDPRAMEDPAR9700000000000EEEEEVEEE06C 69          PH01113F    140         2010-1137                                           ZH      989971052            
GR2C1720121229C000003000123120130205CRIH010       VDiététicien C.Santé Para Diétét.CSaDiététicien cadre santé paramédical               PNMSOIRED      0000000000VVEVEEEEE0               2C012130    01221 FU    2012-1466                       A  G200C12 1    A207PN                 05U20     
GMM08620060526C000003000123120070214CRIH0111262   VMC-PH pharm non chef     Maitre conMaître de Conférence-Prat Hosp pharm non chef servPMDPRAMEDPLE9550000000000EEEEEVEEE053             M036111B    111         2006-593                                            ZH      040021057            
GR2D2220121229C000003000123120130205CRIH010       VTec.labo.CadSup.Santé ParT.Labo.CSaTech. de laboratoire cadre sup.santé paramédical  PNMMDTMDT      0000000000VVEVEEEEE0               2D01411A    01331 GJ    2012-1466                       A  G310C12 1    A207ZH                 05U10     
GR137019890101C310003000123120050520INFORM0       VAUMONIER (Ech.K)         Aumonier  Aumonier (Echelle K)                              PNMADMDIV      0000000000EVEVEEEEE0               K   1220    03111 BH    89-244                          C5     B10                                       
GMP02119600101C000003000123120010101AGIRH40       VPROF.U.TITUL.Ch.S Pa     PROF.U.TITProfesseur titul.emploi Univ.Ch.Service T.Partiel PMDPRAMEDPAR9600000000000EEEEEVEEE050             PT00111G    113         60-1030                                             ZH      010012 52            
GMM31720001101C000003000123120010101AGIRH40       VPHARM.PH ASSOCIE.Ple     PHARM.PH APharmacien PH Temps Plein, Associé                PMDPRAPHAPLE9200000000000EEEEEVEEE066             PH01113A    121         2000-503                                            ZH           1 52            
GR262119930101C000003000123120030718CRIH010       VCONSEIL.ECO.SOC.FAM.     Cons.E.S.FConseiller en Economie Sociale et Familiale       PNMSOISED      0000000000VVEVEEEEE0               26213130    02251 KH    93-653                          B      N15       284PN                 10F50     
GMP91719700101C000003000123120010101AGIRH40       VASSIST.PROV.(A.P) Pa     ASSIST.PROAssistant titre provis.(Arr.Préfectoral) T.Part.  PMDPRAMEDPAR   0000000000EEEEEVEEE061             DIVM111L    140                                                             ZH        0172 59            
GMM42220001101C000003000123120010101AGIRH40       VODONT.PRAT.HOSP-UNIV     ODONT.PRATOdontologiste Praticien Hospitalo-Univ. (temp)    PMDPRAODOPLE9400000000000EEEEEVEEE057             EH04112D    111         2000-503                                            ZH      97   1 57            
GMA32019870801C000003000123120010101AGIRH40       VASSIST.ASSO.GENERAL.     ASSIST.ASSAssistant Généraliste Associé des Hôpitaux        PMDASSMEDPLE9000000000000EEEEEVEEE063             AH02111I    121         87-788                                              ZH      980031456            
GMA42620051202C000003000123120051229CRIH010       VAssist. gén ass pharm NPAAssist génAssistant généraliste associé en pharmacie NPA    PMDASSPHAPLE9000000000000EEEEEVEEE06D             AH02113G    121         2005-1475                                           ZH      980031456            
GR313420060227C000003000123120120120CRIH010       VAdjoint d'Internat  (CE) Adj.InternAdjoint d'Internat (Cadre d'Extinction)           PNMADMECO      0000000000VVEVEEEEE0               ECE31220    03121       2006-227                        C      L18       025ZH                           
GMM11319870805C000003000123120010101AGIRH40       VA-U ASSISTANT Temp       A-U ASSISTAssistant Universités, Assistant Hôpitaux (temp.) PMDASSMEDPLE9000000000000EEEEEVEEE050             PT04111C    111         87-622                                              ZH      070031 57            
GR211420020101C000003000123120130211CRIH018604    VDirecteur soins rééd. 1clDir.Soins1Directeur des soins activités rééducation 1e cl   PNMADMADM      0000000000VEEEEEEEE0               21131300    01221 CA    2002-550                        A      Q10      A204ZH                 45C30     
GR205520121229C000003000123120130211CRIH018322    VOrthophon.CSup.Santé/F(CEOrthophCsaOrthophoniste cad.sup. santé formateur(extinction)PNMSOIECO      0000000000VVEVEEEEE0               20012130    02121 LB    2001-1375 2012-1465             A  G260K12 1    A202ZH                 05X10     
GMB30120101018C000003000123120110920CRIH0114462   VOdon contrat L6152 TP    OdonTP    Odontologiste temps plein contrat 3° art L6152-1  PMDPRAODOPLE9700000000000EEEEEVEEE06G             PH01111M    140         2010-1218                                           ZH      980211456  ODO01     
GR411520070808C000003000123120110520CRIH010       VAgent de maîtrise Ppal   Ag.Maît.PrAgent de maîtrise Principal                       PNMTECOUV      0000000000VVEVEEEEE0               EBE65130    02441 HU    2007-1185                       C      G17 1     421PM                           
GR001520000314C000003000123120010101AGIRH40       VDIRECT.Serv.Cent.1Cl     Dir.Sv.CenDirecteur des Services Centraux 1ère classe       PNMADMDIR      0000000000VEEEEEEEE0               00121110    01100 AA    2000-232                        A      R100      001ZH                           
GR576019900101C000003000123120030718CRIH010       VINGENIEUR GENERAL        Ingén.GénéIngénieur Général Hospitalier                     PNMTECTEC      0000000000VVEVEEEEE0               57605110    01441 HB    91-868                          A      F11       400ZH                           
GR201620121229C000003000123120130211CRIH018322    VOrthopt. CadSup.Santé(CE)OrthoptCSaOrthoptiste cadre sup. santé(extinction)          PNMSOIRED      0000000000VVEVEEEEE0               20012130    02221 FR    2001-1375 2012-1465             A  G270C12 1    A202ZH                 05U10     
GMP45020060101C000003000123120061114CRIH0110939   VOdonto PH Tp Part probat.Odon PH TPOdonto. Prat. hospitalier tp partiel probatoire   PMDPRAODOPAR9300000000000EEEEEVEEE068             PP01112G    122         2006-1221                                           ZH      970172459            
GMM12019870805C000003000123120010101AGIRH40       VCHEF CLINIQUE-ASS.H.     CHEF CLINIChef de Clinique Universités, Assistant Hôpitaux  PMDASSMEDPLE9100000000000EEEEEVEEE058             EH03111D    111         87-622                                              ZH      060031 57            
GR001C20120427C000003000123120121119CRIH0115042   VDir.Emp.Fonc(Gp III)     Dir.emp.F Directeur emploi fonctionnel (groupe III)         PNMADMDIR      0000000000VVEEEEEEE0               001A1110    01100 AA    2012-562                        A      R100     C   ZH                           
GMM06120060526C000003000123120100914CRIH0111262   VPU.PH Pharm Cons Rém PH  PU PH PharProf.Univ/Prat.Hosp.Pharmacien Consultant rému.PH PMDPRAMEDPLE9650000000000EEEEEVEEE053             PH01111A    111         2006                                                ZH      010021057            
GR151620070808C000003000123120110520CRIH010       VAdjoint Administ 2CL     Ad.Adm.2clAdjoint Administratif Hospitalier 2ème Classe     PNMADMADM      0000000000VVEVEEEEE0               ECE31220    03111 BC    2007-1184                       C      B19       020PN                 45S20     
GR206220121229C000003000123120130211CRIH018322    VTech. lab.CSup.Santé/F(CET.Labo.CSaTechnicien labo. cadre sup.santé form(extinction) PNMSOIECO      0000000000VVEVEEEEE0               2001411A    02131 LB    2001-1375 2012-1465             A  G310K12 1    A202ZH                 05X10     
